:020000040800F2
:1000000068070020F1010008852D0008612900081B
:10001000812D0008A1050008A52D000800000000A2
:100020000000000000000000000000008D2D00080E
:10003000A505000800000000892D0008912D00088A
:100040000B0200080B0200080B0200080B0200085C
:100050000B0200080B0200080B0200080B0200084C
:100060000B0200080B0200080B0200080B0200083C
:100070000B0200080B0200080B0200080B0200082C
:100080000B0200080B0200080B0200080000000031
:100090000000000000000000000000000B0200084B
:1000A0000B0200080B0200080B0200080B020008FC
:1000B000992D00080B0200080B0200080B02000833
:1000C0000B0200080B0200080B0200080B020008DC
:1000D0000B0200080B0200080B0200080B020008CC
:1000E0000B0200080B0200080B02000800000000D1
:1000F0000000000000000000000000000000000000
:1001000000000000000000000000000000000000EF
:1001100000000000000000000B0200080B020008B5
:1001200000F002F800F055F814A696E8000CB2446E
:10013000B344DA4501D100F04CF8BAE80F000FA63D
:1001400096E83000A5EB040504EB0607AAEB0704CC
:10015000A7F101074FEA15154FEA3414A4F1010481
:10016000AC4201D300F035F813F0010F18BFFB1AB1
:1001700043F0010300F001F8DBE71847CC3B000037
:10018000EC3B0000103A24BF78C878C1FAD8520777
:1001900024BF30C830C144BF04680C607047000001
:1001A000704700000023002400250026103A28BFD5
:1001B00078C1FBD8520728BF30C148BF0B607047D9
:1001C000642900F07D80002070471FB51FBD10B569
:1001D00010BD00F052F91146FFF7F7FF02F072FE72
:1001E00000F070F903B4FFF7F2FF03BC00F078F9F8
:1001F0000948804709480047FEE7FEE7FEE7FEE7BB
:10020000FEE7FEE7FEE7FEE7FEE7FEE704480549F6
:10021000054A064B70470000952D00082101000893
:1002200068010020680700206803002068030020A0
:100230000FB41CB5074B06AA7B446946009005988D
:1002400000F003F90020694600F012F91CBC5DF8CB
:1002500014FB0000350200002DE9F0410E46044673
:10026000002020622046E168884730B3252805D069
:10027000D4E901219047206A401CF2E7E16820465A
:1002800000278847050018D0A5F14100192802D899
:1002900020354FF400673246294620462760FFF795
:1002A0008FFF40B1012804D0F61D26F0070608365E
:1002B000D8E7361DD6E72846DAE7206ABDE8F081A0
:1002C0002DE9F0410646002410687529314616A52F
:1002D00010D0AFF30080002802DA404213A507E0F7
:1002E00031688A0701D512A502E0490704D511A596
:1002F000012401E0AFF3008000210A2206F1240767
:1003000009E0B0FBF2FCB0FBF2F302FB1C00303062
:1003100078541846491C0028F3D123462A46304613
:10032000BDE8F04100F032B8000000002D000000F0
:100330002B000000200000004FF0000200B5134623
:1003400094469646203922BFA0E80C50A0E80C50F5
:10035000B1F12001BFF4F7AF090728BFA0E80C50A6
:1003600048BF0CC05DF804EB890028BF40F8042B9F
:1003700008BF704748BF20F8022B11F0804F18BF0C
:1003800000F8012B70477047704770472DE9F04720
:100390000D4699469246044600F1240801688806F5
:1003A00004D5E06921F01001216000E00120A8429D
:1003B00001DD471B00E00027A1697A1902EB090063
:1003C000081AA0612078C00602D42046AFF300804E
:1003D000002608E0D4E901211AF806009047206AB7
:1003E000401C761C20624E45F4DB2078C0060AD5FE
:1003F0002046AFF3008006E0D4E901213020904789
:10040000206A401C2062381EA7F10107F4DC07E0D7
:10041000D4E9012118F805009047206A401C2062A9
:10042000281EA5F10105F3DC2046AFF300802078FB
:10043000000602D50220BDE8F0870120FBE700009E
:1004400001694A1C02610878704700B58FB0CDE998
:1004500001310021059105497944CDE90310114688
:100460006846FFF7F9FE0FB000BD0000E5FFFFFF93
:100470000A6802F8010B0A607047754600F02CF814
:10048000AE4605006946534620F00700854618B081
:1004900020B5FFF7BBFEBDE820404FF000064FF04F
:1004A00000074FF000084FF0000BAC46ACE8C00965
:1004B000ACE8C009ACE8C009ACE8C00921F007010C
:1004C0008D46704710B50446AFF300802046BDE866
:1004D0001040FFF787BE0000004870472000002052
:1004E00001491820ABBEFEE726000200704700005D
:1004F000B0B582B004460020019021688A68D20716
:100500004BD1886840F00100886040F21800C2F2C8
:10051000000000684DF68361C4F21B31A0FB0101AD
:10052000880C01900198A0B10198013801900198C0
:1005300078B1019801380190019850B101980138C3
:100540000190019828B10198013801900198002884
:10055000EAD100F067FC21688968C9071CD105460B
:1005600003E000BF8068C00716D100F05BFC411BB0
:1005700020680329F6D38168C907F3D1A06A40F047
:100580001000A062E06A40F00100E062002084F800
:100590002400012002B0B0BD002002B0B0BD0000B8
:1005A000FEE700007047000010B581B00022009205
:1005B00090F82420012A03D10221084601B010BD81
:1005C0004B680122062B80F8242033D8D0F800C0D5
:1005D00003EB83035A1F1F23DCF834E003FA02F411
:1005E0000B682EEA040403FA02F22243CCF834200A
:1005F000092B03EB430249D9DCF80CE01E3A07242F
:10060000896894402EEA0404914023F001022143BA
:10061000102ACCF80C1043D142F20841C4F2010177
:10062000A1F10802944543D0816A41F02001816222
:10063000012136E0D0F800C00C2B03EB830213D865
:10064000233A1F23DCF830E003FA02F40B682EEAA9
:10065000040403FA02F22243CCF83020092B03EB06
:100660004302C9D812E000BF413A1F23DCF82CE056
:1006700003FA02F40B682EEA040403FA02F222439E
:10068000CCF82C20092B03EB4302B5D8DCF8103052
:10069000072489689440A34391401943CCF8101073
:1006A0000021002280F82420084601B010BD00BFC0
:1006B0000A681202F4D40A68102B42F400020A609D
:1006C000EED140F21801C2F2000109684DF68362D2
:1006D000C4F21B32A1FB0212910C01EB8101490013
:1006E000009100990029DBD000990139009100990F
:1006F0000029D5D000990139009100990029CFD067
:1007000000990139009100990029C9D00099013957
:100710000091009900294FF00001E5D1C1E70000E8
:100720000068C06C70470000002804BF01207047BB
:10073000B0B50446806A28B121688868C0070CD12A
:1007400015E000BF0020E06284F82400204600F09D
:100750009BF821688868C00709D0886820F00100EC
:10076000886000F05FFB21688A68D20726D1A06A02
:10077000C0063AD4A06A41F2021290430230A0624D
:10078000E069D4E9013240EA030C531EB3FA83F363
:100790005D091346B2F5807F18BF2B02207D257BB3
:1007A00001284CEA450030D135B3A56A45F0200553
:1007B000A562E56A45F00105E56226E0054602E02E
:1007C0008868C007D3D000F02DFB401B21680328A8
:1007D000F6D38868C007F3D0A06A40F01000A0628A
:1007E000E06A40F00100E062A06AA06A40F01000F8
:1007F000A0620120B0BD00BFD4F818C04EF60005BD
:10080000CFF6FF7505EB4C352B434D68B2F5807F75
:1008100025F4694543EA05034B608B684FF2FD758B
:10082000CFF6E17503EA050343EA00038B6001D0CC
:10083000012A07D122690023CFF6F07303EB02529D
:1008400001E000BF0022CB6A23F470031A43CA629E
:10085000896840F6FE62CFF61F721140814207D1CF
:100860000020E062A16A012262F30101A162B0BD31
:10087000A06A40F0100020F00200A062E06A40F0A0
:100880000100E0620120B0BD80B586B0014640F6AF
:100890000040C4F20100096800F5C05291424FF0D7
:1008A0000001CDE9041101D006B080BD41F218016C
:1008B000C4F202010A6842F400720A600A6802F493
:1008C00000720192019A0A6842F008020A600968FF
:1008D00001F0080101910199022102910321039184
:1008E00002A900F091F906B080BD0000F0B581B01A
:1008F00000270D460446009700F094FA21688A68A4
:10090000D20543D406464868C00503D4C86A10F42B
:10091000700F45D040F21800C2F2000007680220B4
:1009200000F006FD216844F624130A69B7FBF0F0D5
:10093000C2F292431A4206D1CA6844F62413C0F2A6
:1009400092031A425ED00A6942F29243C1F24923ED
:100950001A4207D1CA6842F29243C0F249031A42CE
:1009600000F0C0800A6949F24923C0F224031A4208
:100970004FF0FC0257D1CF681F4208BF5422009BA2
:1009800002FB00F7BB4253D3C3E000BFA06A40F0B4
:100990002000A06284F82470012001B0F0BD00BFE7
:1009A0000868800700F1B580681C00F0A880FDB9D8
:1009B0000868800772D50868800700F1AA80086877
:1009C00080076BD50868800700F1A380086880075E
:1009D00064D50868800700F19C80086880075DD5B1
:1009E00008688007E4D594E00868800700F19180EA
:1009F00000F018FA801B2168A842F5D90868800722
:100A0000F2D44BE00A6942F29243C1F249231A42FE
:100A10004FF0290207D1CB6842F29247C0F2490752
:100A20003B4208BF1422009B02FB00F7BB4270D27E
:100A3000681C4FD055BB0098B8422FD300980130A6
:100A400000900098B84264D20098B84226D300982B
:100A5000013000900098B8425BD20098B8421DD394
:100A60000098013000900098B84252D20098B842E5
:100A700014D30098013000900098B842DBD348E0CE
:100A80000098013000900098B84233D200F0CAF9C3
:100A9000801BA842F4D90098B842F1D2A06A40F075
:100AA0000400A062002084F82400032001B0F0BDFF
:100AB0000098013000900098B8422AD20098013086
:100AC00000900098B84224D200980130009000981D
:100AD000B8421ED20098013000900098B842E7D387
:100AE00017E000BF5422009B02FB00F7BB429FD3DC
:100AF0000FE000BF21680CE00868800709D408688F
:100B0000800706D4086880075CBF08685FEA8070C9
:100B1000F2D56FF012000860A06A40F40070A06285
:100B2000886800F46020B0F5602F01D1207B18B1F7
:100B3000002001B0F0BD00BFA06A20F48070A06268
:100B4000A06AC004F4D4A06A40F00100A0620020B2
:100B500001B0F0BD10B5044690F82400012804BF90
:100B6000022010BD012084F824002046FFF7C0FCBD
:100B700020B1002084F82400012010BD2068A16A63
:100B800040F20132914301F58071A162A16A21F422
:100B90008011A1624168490504D5A16A012262F36E
:100BA0000D31A162A26A0021D2044FF0000244BFBD
:100BB000E26A22F00602E26284F824106FF0020179
:100BC0000160816801F460228168B2F5602F0CBF7A
:100BD00041F4A00141F480118160002010BD0000AB
:100BE000B0B5044600F01EF9054640F21000C2F20E
:100BF00000000078611C18BF044400BF00F012F927
:100C0000401BA042FAD3B0BD2DE9F04F82B00E6870
:100C1000002E00F0FD8041F20042C4F201020423E4
:100C200040F2004E904208BF03234FF6FF7CC4F20F
:100C3000010E009300240123C1F2100C4FF0000AB2
:100C40004FF0000944E000BF012704F00C030F221D
:100C50009A402BEA020207FA03F34FEA9A051A4375
:100C600046F825204E6840F20C45F202DEF80820D6
:100C700054BF22EA080242EA0802C4F20105CEF893
:100C800008202A68B30254BF22EA080242EA080296
:100C90002A60B303DEF8042054BF22EA080242EAC5
:100CA0000802F303CEF80420DEF800204FF0010321
:100CB00054BF22EA080242EA0802CEF800200E6879
:100CC0000AF1010A36FA0AF204F1040400F0A080E5
:100CD00003FA0AFB16EA0B08F1D04E68664511DCF0
:100CE000122E55D8DFE806F0340A444854545454C0
:100CF0005454545454545454544C5000D1F80C90FF
:100D000046E000BF4FF6FF72C1F2210296420FDCAF
:100D10000022C1F2110296421AD00022C1F2120240
:100D2000964215D00022C1F22102964210D02FE047
:100D30000022C1F2220296420AD00022C1F2310200
:100D4000964205D00022C1F23202964220D100BF65
:100D50008A684AB1012A14BFC0F814B0C0F810B0B4
:100D60004FF0080914E000BF4FF0040910E000BF85
:100D7000CA6802F108090BE04FF0000908E000BF63
:100D8000CA6802F1040903E0CA6802F10C0900BF55
:100D900022460646B8F5807F24BF203A04363768DD
:100DA0000F25954027EA050509FA02F22A43326029
:100DB000CA79D2067FF583AF41F21803C4F2020369
:100DC0001A68AEF57E7642F001021A601A6802F0E7
:100DD00001020192019A2AF0030256F802B040F68D
:100DE0000002C4F20102904210D040F60042C4F268
:100DF000010290423FF428AF41F20002C4F2010226
:100E0000009F904208BF02271FE700BF00271CE792
:100E100002B0BDE8F08F0000002A08BF090401619C
:100E20007047000040F26410C2F200000068704792
:100E3000002804BF01207047F0B581B0044690F847
:100E40003D0028B9002084F83C00204600F090F9CD
:100E5000242084F83D002068016821F00101016030
:100E6000016841F400410160016821F40041016022
:100E700000F0BEFB636848F2A16CC0F2010C40F6C2
:100E80000011C0F23D0163453CBF48F28041C0F211
:100E90001E01884202D2012001B0F0BD4DF68361EF
:100EA000C4F21B31A0FB01122168970CD1F804E0B9
:100EB0004FF496762EF03F0545EA92454D60774314
:100EC00048F638160D6AC0F24106A7FB067625F0F3
:100ED0003F07634538BF960C721C3A430A62CA69E1
:100EE00048F2A0664CF6FF77C0F20106B34222EA50
:100EF00007020BD801385B00B0FBF3F001306FF351
:100F00001F30042898BF04201BE000BFA7680138E9
:100F100057B119277B43B0FBF3F001306FF31F305B
:100F200070B100F5804007E003EB4303B0FBF3F042
:100F300001306FF31F3018B100F5004001E000BF31
:100F400001201043C8610868D4E9072320F0C000DD
:100F5000104318430860886848F2FF3204F10C0718
:100F600090438CCF18431043A6698860C86820F06E
:100F7000FF0038433043C860086840F00100086053
:100F800000202021206484F83D10206384F83E0076
:100F900001B0F0BD2DE9F04383B01E4617468946E7
:100FA0000446FFF73FFF94F83D10202924D1054661
:100FB000206800BF816989071AD5FFF733FF411BFD
:100FC00020681A29F6D381698907F3D500202021EA
:100FD000206384F83D1084F83E00216C41F020012C
:100FE000216484F83C00022003B0BDE8F08300BF18
:100FF00094F83C10012903D1022003B0BDE8F0832E
:10100000012184F83C100168C90703D1016841F04F
:1010100001010160016840F2020821F400610160F1
:10102000212184F83D10102184F83E100021216414
:1010300067626685618DC0F201082185A8F1021101
:10104000E162E16A0A9E11F5803F18BF01291DD1B6
:10105000016841F48071016020464FF001110022C7
:101060003346009501F0DCFC50B120680068C005F3
:1010700044BF4FF400702064012003B0BDE8F0834A
:101080002069B0F5804F07D1FE2015E00829DFD098
:10109000216B1229DCD0DFE7062000EAD910216895
:1010A000F030086108F10601204632462B4601F077
:1010B0009DFD0028E0D1FF20216800EA09000861B9
:1010C0002046414632462B4601F090FD0028D3D100
:1010D0000020029020684169029180690290029884
:1010E00006E000BF204631462A4601F03BFC18BB13
:1010F000208D68B3204631462A4601F0E3FDD8B979
:10110000606A2168024612F8013B0B616262628DDF
:10111000013A6285228D531E23854F697F07E1D5F1
:101120001B04DFD0437802300B616062608D0138B0
:101130006085901E2085D5E7206C04289CD120680E
:10114000016841F400710160012003B0BDE8F08343
:101150002068016841F400710160202084F83D009E
:10116000002084F83E0084F83C0003B0BDE8F08322
:1011700010B586B045F200410068C4F200010022BB
:101180008842049202D006B010BD00BF41F218049C
:10119000C4F20204206840F008002060206800F0DB
:1011A000080001900198C0200290122003900320B3
:1011B000059001F5384002A9FFF726FD606840F46C
:1011C00000106060606800F400100190019806B0A3
:1011D00010BD000040F2100040F26411C2F20000A5
:1011E000C2F2000100780A681044086070470000ED
:1011F00080B5032000F08CF8002000F005F800F026
:1012000027F8002080BD000070B540F21006C2F241
:10121000000640F218013278C2F200014FF47A73EE
:101220000968B3FBF2F20446B1FBF2F1084600F0A4
:1012300007FC0F2C4FF0010508D838B94FF0FF30EC
:1012400021460022002500F037F87460284670BD62
:1012500082B041F21800C4F202000168022241F09B
:1012600001010160016801F00101019101994168EA
:1012700041F080514160406800F08050009000983B
:101280000420C4F20100016862F31A61016002B037
:1012900070470000002848BF704700F01F0101227E
:1012A00002FA01F11C2202EAD0004EF20012CEF244
:1012B000000281507047000010B54EF60C5CCEF273
:1012C000000CDCF80030C3F3022E8EF00704042C6F
:1012D00028BF0424BEF103034FF0FF3E0EFA04F4CE
:1012E00038BF0023A14399400EFA03F39A431143F8
:1012F00000F00F0200F160430901043A03F5644372
:101300006244002848BF02F10C03197010BD0000B0
:101310004EF60C51CEF200010A684FF6FF031A4058
:1013200060F30A2242F0806040F0FD700860704770
:10133000022823D001281CBF0020704741F2000082
:10134000C4F20200016A40F202320A40B2F5817F23
:1013500004BF4FF40040704701F44071B1F5407F85
:101360001CD0B1F5007F1CBF00207047406A49F6D1
:101370004041800701EAE070704700BF80B500F08F
:101380004BF941F20001C4F2020149680222C1F3A3
:10139000813102EB4101B0FBF1F080BD00684FF2FA
:1013A0002441800301EAE070704700002DE9F0411C
:1013B00082B004460078C0074ED041F21C06C4F249
:1013C000020630685FEAC00808D4306840F08050F8
:1013D0003060306800F080500190019847F20007BB
:1013E000C4F200073868C00512D4386840F4807031
:1013F0003860FFF717FD05463868C00508D4FFF7C9
:1014000011FD401B6428F7D9032002B0BDE8F0812C
:10141000706810F4407012D0616801F44071884225
:101420000DD0706840F24042C4F24222012320F401
:10143000407113600023C0071360716020D1706891
:10144000616820F440700843B8F1000F706003D465
:10145000306820F080503060207880070BD541F252
:101460001C00C4F2020050F8181CA26821F440418C
:10147000114340F8181C002002B0BDE8F08100BF05
:10148000FFF7D0FC054641F2883700BF706880073F
:10149000D5D4FFF7C7FC401BB8424FF00300F5D985
:1014A000EAE70000002804BF01207047F0B581B0D2
:1014B0000446006841F204068107C4F2020611D511
:1014C000410703D5316841F4E0613160010703D57C
:1014D000316841F4605131603168A26821F0F00157
:1014E00011433160C10736D06068022808D0012856
:1014F0000ED156F8041C890312D4012001B0F0BDAE
:1015000056F8041C89010BD4012001B0F0BD00BFC6
:1015100056F8041C890703D4012001B0F0BD00BFB8
:10152000316821F0030108433060FFF77BFC05467A
:1015300041F288373068616800F00C00B0EB810F31
:1015400008D0FFF76FFC401BB842F3D9032001B06D
:10155000F0BD00BF2068410705D53168E26821F47D
:10156000E06111433160000706D53068216920F43D
:10157000605040EAC1003060326802F00C00082878
:1015800041F20020C0F27A0019D143F62853C2F389
:101590008341C0F60003595CD20305D440F6001025
:1015A000C0F23D0048430AE0B26A43F6385302F005
:1015B0000F02C0F600039A5C4843B0FBF2F03168BA
:1015C00043F61052C1F30311C0F60002515C40F221
:1015D000180220FA01F140F21400C2F20000006883
:1015E000C2F200021160FFF70FFE002001B0F0BD53
:1015F00040F2180041F20401C2F20000C4F20201FC
:101600000068096843F62052C1F30221C0F60002C7
:10161000515CC8407047000040F2180041F20401DC
:10162000C2F20000C4F202010068096843F62052C9
:10163000C1F3C221C0F60002515CC84070470000EF
:10164000002804BF012070472DE9F04182B0044614
:10165000007841F20006C007C4F202060CD07068A0
:1016600000F00C00042840F081803068800303D52E
:101670006068002800F04E81207880071BD57068D4
:1016800010F00C0F09D0706800F00C00082840F032
:101690008B807068C00300F187803068800703D5B5
:1016A0002069012840F036813068616920F0F80037
:1016B00040EAC10030602078000713D4207840074A
:1016C0002CD4E569002D00F02081706800F00C003A
:1016D000082840F0AF80012D40F00C81012002B0BD
:1016E000BDE8F081A069002800F08C800020C4F2E1
:1016F00042200121C0F88014FFF794FB054600BF8B
:10170000706A800700F1BA80FFF78CFB401B02284B
:10171000F6D9032002B0BDE8F08100BFF0695FEAAE
:10172000C00808D4F06940F08050F061F06900F022
:1017300080500090009847F20007C4F20007386814
:10174000C0054DD4386840F480703860FFF76AFBFC
:10175000054600BF3868C00542D4FFF763FB401B55
:101760006428F7D9032002B0BDE8F081706800F06A
:101770000C00082803D17068C0033FF576AF60689D
:10178000002800F00981B0F5A02F00F01D81B0F510
:10179000803F00F01D81306820F480303060306878
:1017A00020F4802017E100BF2069002840F20000EB
:1017B000C4F2422000F08C8001210160FFF732FB6F
:1017C000054600BF306880073FF56EAFFFF72AFB84
:1017D000401B0228F6D9032002B0BDE8F08100BF0B
:1017E000E068002800F09A80052800F0B180012808
:1017F00000F0B280306A20F001003062306A20F0E0
:101800000400ACE00020C4F242200021C0F88014A3
:10181000FFF708FB054600BF706A80077FF54EAFF3
:10182000FFF700FB401B0228F6D9032002B0BDE8F9
:10183000F08100BF0027C4F2422700203866FFF77E
:10184000F1FA022D05460DD13068800140F1D680B5
:10185000FFF7E8FA401B02284FF00300F4D902B06A
:10186000BDE8F081306880014FD5FFF7DBFA401BFF
:1018700002284FF00300F5D9F1E700BF40F218004D
:10188000C2F20000006844F6D351C1F26201A0FB2D
:101890000101480A019000BF00BF0198411E0028C5
:1018A00001913FF40BAF00BF0198411E0028019148
:1018B0003FF404AF00BF0198411E002801913FF49E
:1018C000FDAE00BF0198411E00280191E4D1F5E66C
:1018D00000210160FFF7A6FA054600BF30688007C7
:1018E0007FF5E9AEFFF79EFA401B02284FF0030098
:1018F000F4D9B4E77068216A00F480328A4209D1D1
:10190000616A00F47010884204D1002002B0BDE882
:10191000F08100BF012002B0BDE8F081306A20F004
:1019200001003062306A20F004003062FFF77AFA7A
:10193000054641F2883700BF306A800722D5FFF79D
:1019400071FA401BB8424FF00300F5D987E700BF9A
:10195000306A40F004003062306A40F001003062CA
:10196000FFF760FA054641F2883700BF306A80070A
:1019700008D4FFF757FA401BB842F7D9032002B04A
:10198000BDE8F081B8F1000F3FF59BAEF06920F0A3
:101990008050F06195E600BF306820F48030306000
:1019A000306820F480203060FFF73CFA054600BF25
:1019B000306880037FF560AEFFF734FA401B64287F
:1019C0004FF00300F4D94AE7306840F480203060DB
:1019D000306840F480303060FFF724FA054600BFDD
:1019E000306880033FF548AEFFF71CFA401B6428BF
:1019F000F6D9032002B0BDE8F08100BF206AB0F53F
:101A0000803F05D1F16AA26821F00F011143F16214
:101A10007168626A21F474111143084370600120F7
:101A20003866FFF7FFF90446306880013FF56DAF77
:101A3000FFF7F8F9001B02284FF00300F4D90EE776
:101A4000411E0020B0EB116F1CBF012070474EF209
:101A50001002CEF2000251604EF62351CEF2000188
:101A6000F0230B70072190601160704770470000F1
:101A70007047000090F83C20012A4FF002023BD052
:101A800010B580F83D200268D2F804E0D2F808C012
:101A90000C682EF07003234340F2FF74C4F200047C
:101AA000A242536012DD40F60003C4F200039A42E2
:101AB00015D044F20003C4F201039A420FD042F65B
:101AC0000043C4F201039A4209D00DE0B2F1804F05
:101AD00005D040F20043C4F200039A4204D14968A1
:101AE0002CF08003194391600121002280F83D1001
:101AF00080F83C20BDE8104010467047002804BF25
:101B00000120704710B5044690F83D0028B9002028
:101B100084F83C00204600F093F8022084F83D0051
:101B2000206840F2FF720168C4F2000290421DDC9E
:101B3000B0F1804F26D040F20042C4F20002904241
:101B400020D042F6FF32C4F20102904224DD44F27A
:101B5000FF32C4F2010290422EDC42F60042C4F28F
:101B60000102904234D044F200022DE042F60042DD
:101B7000C4F20102904205D040F60002C4F2000215
:101B80009042DED1A26821F07001114342F6FF328B
:101B9000C4F201029042DADCB0F1804F18D040F27A
:101BA0000042C4F20002904212D040F60002C4F299
:101BB000000290420CD00FE044F60002C4F2010291
:101BC000904205D044F20042C4F20102904203D197
:101BD000226921F440711143A36921F08001E26878
:101BE0001943D4F804C00160A0F18041C262A1F59C
:101BF0009631820542EA91210729C0F828C007D80A
:101C0000012202FA01F111F0E10F1CBF61690163C9
:101C100001214161002084F8461084F83E1084F8C8
:101C20003F1084F8401084F8411084F8421084F882
:101C3000431084F8441084F8451084F83D1010BD1A
:101C40000068B0F1804F18BF704780B582B041F294
:101C50001C00C4F202000168002241F00101016091
:101C60000068002100F00100019001981C20FFF79E
:101C700023FB1C2002B0BDE88040FFF70BBB000037
:101C800090F83C20012A4FF0020200F0C58080B598
:101C900080F83D20D0F800C04FF67772DCF80830AD
:101CA00023EA0202CCF808200B684F2B28DC1F2BFC
:101CB00044DD202B45D0302B43D0402B40F0AE806C
:101CC000D1F804E0C968DCF82030DCF8202022F0EC
:101CD0000102CCF82020DCF8182022F0F00242EAC1
:101CE000011123F00A0242EA0E02CCF81810CCF8D7
:101CF0002020DCF8081041F0470121F0300180E09D
:101D00006F2B27DDB3F5005F48D0B3F5805F7AD045
:101D1000702B40F08380D1E901E3C968DCF808202A
:101D200043EA0E0322F47F4243EA01211143CCF837
:101D30000810DCF8081041F0770162E00BB1102BBD
:101D40006CD1DCF8081021F07001194341F0070153
:101D500057E000BF502B35D0602B5FD1D1F804E0A5
:101D6000C968DCF82030DCF8202022F01002CCF822
:101D70002020DCF8182022F4704242EA013123F0DE
:101D8000A00242EA0E12CCF81810CCF82020DCF8A1
:101D9000081041F0670121F0100132E0D1E901E3C0
:101DA000C968DCF8082043EA0E0322F47F4243EAC4
:101DB00001211143CCF80810DCF8081041F48041EF
:101DC0001FE000BFD1F804E0C968DCF82030DCF87F
:101DD000202022F00102CCF82020DCF8182022F08C
:101DE000F00242EA011123F00A0242EA0E02CCF8A4
:101DF0001810CCF82020DCF8081041F0570121F031
:101E00002001CCF808100022012180F83D100021AB
:101E100080F83C10BDE88040104670470122F3E78F
:101E20007047000010B5016804460869800744BF88
:101E3000C8685FEA807039D40869400744BFC86841
:101E40005FEA40703ED40869000744BFC8685FEA93
:101E5000007045D40869C00644BFC8685FEAC06026
:101E60004AD40869C0071CBFC8685FEAC07051D176
:101E70000869000644BFC8685FEA006052D4086978
:101E8000400644BFC8685FEA406053D408698006D2
:101E900046BFC8685FEA806010BD6FF02002204630
:101EA0000A61BDE81040FFF7E3BD00BF6FF002001C
:101EB0000861012020778869800743D02046FFF71A
:101EC000AFFF45E06FF004000861022020778869C9
:101ED00010F4407F40D02046FFF7A2FF42E000BF51
:101EE0006FF00800086104202077C86980073DD0A2
:101EF0002046FFF795FF3FE06FF0100008610820D3
:101F00002077C86910F4407F3AD02046FFF788FF59
:101F10003CE000BF6FF001000861204600F0C2FA0B
:101F20002168A5E76FF0800008612046FFF79EFD5D
:101F30002168A4E76FF040000861204600F0B4FA81
:101F40002168A3E7204600F059F8204600F034FA53
:101F50002168002020776FE7204600F04FF82046E8
:101F600000F02AFA2168002020776CE7204600F074
:101F700045F8204600F020FA21680020207769E724
:101F8000204600F03BF8204600F016FA21680020B9
:101F9000207766E780B586B000680021B0F1804FF9
:101FA000049101D006B080BD41F21800C4F20200D5
:101FB000016841F004010160006802A900F004001A
:101FC000019001984FF40040029002200390059088
:101FD00040F60000C4F20100FEF716FE0420C4F231
:101FE000010001684FF6FF42CFF6FF02114041F0B9
:101FF000E06141F48071016006B080BD704700006F
:1020000090F83C30012B04BF022070474FEAB20227
:10201000032A4FD82DE9F041DFE802F002529CE696
:1020200003681D6A1A6AA3F1804622F001021A624F
:102030001A46A6F596369F05D3F804C052F818EF55
:1020400047EA96268F68D1F8008025F00205072E12
:1020500045EA07050AD80127B74017F0E10F1FBF6F
:10206000CF6825F00C0527F004073D43072E0CD858
:10207000012707FA06F616F0E10F1FBFD1E9056741
:102080002CF44074264346EA070C2EF0730747EA07
:102090000807C3F804C09F614F6809695F631D6248
:1020A0009F6947F008079F619F6927F004079F61B8
:1020B000D2E000BF0121002280F83C200846704792
:1020C000036842F600461F6A1A6AC4F2010622F04B
:1020D00010021A621A465C6852F818CFB3428E6832
:1020E00027F0200747EA061508D1CE6825F0C0077B
:1020F0006FF0400505EA061646EA0705A3F180469B
:10210000A6F596369F05D1F800E047EA9626072EF9
:102110000CD8012707FA06F616F0E10F1FBFD1E928
:10212000056724F440643E4344EA86042CF4E64701
:1021300047EA0E275C609F614F6809699F631D62D3
:102140009F6947F400679F619F6927F480679F61DB
:1021500081E000BF036842F600461F6A1A6AC4F2B3
:10216000010622F480721A621A465C6852F81CCF8B
:10217000B3428E6827F4007747EA062508D1CF6876
:1021800025F440663F0240F2FF45AF4347EA0605AB
:10219000A3F18046A6F596369F05D1F800E047EA00
:1021A0009626072E0CD8012707FA06F616F0E10F3F
:1021B0001FBFD1E9056724F440543E4344EA0614A6
:1021C0002CF0730747EA0E075C60DF614F6809690E
:1021D000DF631D62DF6947F00807DF61DF6927F011
:1021E0000407DF6138E000BF0368D3F820C01A6A33
:1021F000A3F1804722F480521A621A46A7F5963757
:102200009D055C6852F81C8FD1F800E08E6845EAA5
:102210009727072F09D80125BD4015F0E10F1EBFF4
:102220004D6924F4804444EA85142CF4005747EAAD
:10223000063728F4E64646EA0E265C60DE614E6804
:1022400009691E641F62DF6947F40067DF61DF69A7
:1022500027F48067DF6109021368194311600021C8
:10226000BDE8F041002280F83C200846704700009D
:10227000002804BF0120704710B5044690F83D00C7
:1022800028B9002084F83C00204600F093F8022092
:1022900084F83D00206840F2FF720168C4F2000239
:1022A00090421DDCB0F1804F26D040F20042C4F2D3
:1022B0000002904220D042F6FF32C4F20102904266
:1022C00024DD44F2FF32C4F2010290422EDC42F6D9
:1022D0000042C4F20102904234D044F200022DE0E8
:1022E00042F60042C4F20102904205D040F60002DC
:1022F000C4F200029042DED1A26821F070011143C5
:1023000042F6FF32C4F201029042DADCB0F1804FB3
:1023100018D040F20042C4F20002904212D040F6BF
:102320000002C4F2000290420CD00FE044F600021A
:10233000C4F20102904205D044F20042C4F201020C
:10234000904203D1226921F440711143A36921F025
:102350008001E2681943D4F804C00160A0F1804113
:10236000C262A1F59631820542EA91210729C0F89F
:1023700028C007D8012202FA01F111F0E10F1CBFB9
:102380006169016301214161002084F8461084F8ED
:102390003E1084F83F1084F8401084F8411084F80F
:1023A000421084F8431084F8441084F8451084F8EF
:1023B0003D1010BD704700007047000041B1082972
:1023C00010D0042914BF00F1410200F13F020BE0DC
:1023D00090F83E20012A1CBF01207047022280F89D
:1023E0003E2013E000F140021278012A1CBF0120B8
:1023F00070470222082907D0042914BF80F8412021
:1024000080F83F2002E000BF80F84020006801F023
:102410001F024FF0010C036A0CFA02F293430362AD
:10242000036A81051343A0F18042A2F5963241EA86
:102430009222072A036208D80CFA02F111F0E10F88
:102440001EBF416C41F40041416440F2FF71C4F28F
:102450000001884212DD40F60001C4F2000188420A
:1024600015D044F20001C4F2010188420FD042F6B7
:102470000041C4F20101884209D00DE0B0F1804F63
:1024800005D040F20041C4F20001884204D18168C5
:1024900001F00701062903D0016841F00101016044
:1024A00000207047704700007047000010B582B0F0
:1024B00041F204040020CEF2000400F075FC10206C
:1024C00000F072FC40F21800C2F2000000684DF605
:1024D0008361C4F21B31A0FB0101890C4FF4FA6245
:1024E000206851432268121A0192019A8A4211D23D
:1024F0002268121A0192019A8A420BD22268121A99
:102500000192019A8A4205D22268121A0192019A16
:102510008A42E7D302B010BDB0B50C46302101EAC3
:10252000C0014031C501084600F03EFCE8B200F0B1
:102530003BFC2078050140F0010000F0F10000F0C4
:1025400033FC681CC0B200F02FFC6078050140F03D
:10255000010000F0F10000F027FC681CC0B200F0A0
:1025600023FCA078050140F0010000F0F10000F02C
:102570001BFC681CC0B200F017FCE078050140F0BD
:10258000010000F0F10000F00FFC681CC0B200F088
:102590000BFC2079050140F0010000F0F10000F093
:1025A00003FC681CC0B200F0FFFB6079050140F03D
:1025B000010000F0F10000F0F7FB681CC0B200F071
:1025C000F3FBA079050140F0010000F0F10000F0FC
:1025D000EBFB681CC0B200F0E7FBE079040140F0BF
:1025E000010000F0F10000F0DFFB601CC0B2BDE8AC
:1025F000B04000F0D9BB00002DE9F04182B040F2BC
:10260000C004C2F200040821207061700421012876
:102610004EF6FC5088BF0821A170CEF20000016880
:1026200041F2040521F0807101600168CEF20005DD
:1026300041F08071016055F8040C20F0010045F86C
:10264000040C55F8040C40F0010045F8040C00207F
:102650002860322000BF00BF00BFFEF7C1FA6078DB
:102660000A278DF8040040F2C800C2F2000001AA57
:102670004E2101230097FEF78DFC4FF47A70FEF790
:10268000AFFA302000F090FB40F21808C2F20008C8
:10269000D8F800004DF68367C4F21B37A0FB070192
:1026A000890C41F294122868514300BF2A68121A1B
:1026B0000192019A8A4211D22A68121A0192019A51
:1026C0008A420BD22A68121A0192019A8A4205D2D2
:1026D0002A68121A0192019A8A42E7D3302000F048
:1026E00063FBD8F8000041F29412A0FB0701890CAB
:1026F000286851432A68121A0192019A8A4211D21B
:102700002A68121A0192019A8A420BD22A68121A76
:102710000192019A8A4205D22A68121A0192019AFC
:102720008A42E7D3302000F03FFBD8F8000041F2A6
:102730009412A0FB0701890C286851432A68121AD9
:102740000192019A8A4211D22A68121A0192019AC0
:102750008A420BD22A68121A0192019A8A4205D241
:102760002A68121A0192019A8A42E7D3202000F0C7
:102770001BFBD8F800006422A0FB0701890C286825
:10278000514300BF2A68121A0192019A8A4211D25B
:102790002A68121A0192019A8A420BD22A68121AE6
:1027A0000192019A8A4205D22A68121A0192019A6C
:1027B0008A42E7D3A07840F02001060101F0F00042
:1027C00000F0F2FAF0B200F0EFFA0420E07000201E
:1027D00000F0EAFAC02000F0E7FA002000F0E4FA86
:1027E000102000F0E1FAD8F800004FF4FA62A0FBE4
:1027F0000701890C286851432A68121A0192019A2C
:102800008A4211D22A68121A0192019A8A420BD284
:102810002A68121A0192019A8A4205D22A68121A6B
:102820000192019A8A42E7D302202071002000F031
:10283000BBFA602000F0B8FAD8F8000041F2941218
:10284000A0FB0701890C2868514300BF2A68121AAF
:102850000192019A8A4211D22A68121A0192019AAF
:102860008A420BD22A68121A0192019A8A4205D230
:102870002A68121A0192019A8A42E7D340F20004B0
:10288000C2F2000400202146FFF746FE04F10801D1
:102890000120FFF741FE002000F086FA202000F022
:1028A00083FAD8F800004FF4FA62A0FB0701890C04
:1028B000286851432A68121A0192019A8A4211D259
:1028C0002A68121A0192019A8A420BD22A68121AB5
:1028D0000192019A8A4205D22A68121A0192019A3B
:1028E0008A42E7D302B0BDE8F081000001780029F8
:1028F00008BF7047B0B5441E41F0010000F0F10080
:102900000D0100F051FA681CC0B200F04DFAA17838
:1029100001340029F0D1BDE8B040704710B540F255
:10292000C002C2F2000212788A4298BF511EC9B298
:1029300007A212F82110084440F08001040101F0C0
:10294000F00000F031FAE0B2BDE8104000F02CBA1F
:1029500000000000400000001400000054000000CF
:10296000FEE7000070B50368044653F8140F4007F3
:1029700011D40E46481C29D086BB00BF18684005FC
:1029800027D4FEF74FFA236853F8140F400737D5C2
:1029900018684007F2D5002070BD00BF18684007D6
:1029A000F9D41868400514D418684007F3D418689F
:1029B00040050ED418684007EDD41868400508D4C7
:1029C000186840074FF0000048BF70BD1868400508
:1029D000E4D56FF480601860042012E0154603E02F
:1029E00053F8140F4007D6D418684005F1D4FEF709
:1029F00019FA401B2368B042F2D958694007EFD456
:102A0000202000212022216384F83D2084F83E10FC
:102A1000226C10432064012084F83C1070BD00003B
:102A20002DE9F041054600681E46144601F47F0278
:102A300001338FB242D0DDF81880B2F5803F40F00C
:102A4000878040693840C01BB0FA80F04009A0423E
:102A500040F0C8804EB924E040693840C01BB0FA4D
:102A600080F04009A04240F0BD80FEF7DBF9A0EB0A
:102A700008012868B142EFD941693940C91BB1FA50
:102A800081F14909A142E7D19BE000BF406938408C
:102A9000C01BB0FA80F04009A0424FF0000040F0A7
:102AA000A280FEF7BFF9286841693940C91BB1FA15
:102AB00081F14909A142E9D183E000BFB2F5803F2D
:102AC00024D100BF41693940C91BB1FA81F14909DC
:102AD000A14240F0878041693940C91BB1FA81F1B8
:102AE0004909A14240F07E8041693940C91BB1FAD1
:102AF00081F14909A14275D141693940C91BB1FA37
:102B000081F14909A142DDD06CE000BF8169394003
:102B1000C91BB1FA81F14909A14263D181693940E8
:102B2000C91BB1FA81F14909A1425BD181693940E0
:102B3000C91BB1FA81F14909A14253D181693940D8
:102B4000C91BB1FA81F14909A142DFD04AE000BFB7
:102B500080693840C01BB0FA80F04009A04241D1E2
:102B600046B923E080693840C01BB0FA80F04009C4
:102B7000A04237D1FEF756F9A0EB08012868B14210
:102B8000F0D981693940C91BB1FA81F14909A142E3
:102B9000E8D116E080693840C01BB0FA80F04009E7
:102BA000A0424FF0000018BFBDE8F081FEF73AF9EF
:102BB000286881693940C91BB1FA81F14909A142EC
:102BC000E8D100202021286385F83D1085F83E00DB
:102BD000296C41F02001296485F83C000120BDE802
:102BE000F08100BF0020BDE8F0810000F0B581B0A9
:102BF000044600681D4643698FB203EA0701B942E3
:102C000002D1002001B0F0BD4169164601323FD02B
:102C100049053FD4CEB100BFFEF704F9411B20683F
:102C2000B14203D941693940B94215D141693940AE
:102C3000B942E6D041694905EED52BE041693940FA
:102C4000B942DED04169490524D4FEF7EBF820688B
:102C500041693940B942F1D0202023E0416939402F
:102C6000B942CED04169490514D441693940B942CD
:102C7000C7D0416949050DD441693940B942C0D036
:102C80004169490506D441693940B942B9D0416921
:102C90004905E3D5016841F4007101606FF480617A
:102CA0004161042000212022216384F83D2084F822
:102CB0003E10226C1043206484F83C10012001B0C7
:102CC000F0BD000070B50368044653F8140F000609
:102CD00011D40E46481C29D086BB00BF1868400599
:102CE00027D4FEF79FF8236853F8140F000637D552
:102CF00018680006F2D5002070BD00BF18680006F5
:102D0000F9D41868400514D418680006F3D418687C
:102D100040050ED418680006EDD41868400508D4A4
:102D2000186800064FF0000048BF70BD18684005E5
:102D3000E4D56FF480601860042012E0154603E0CB
:102D400053F8140F0006D6D418684005F1D4FEF7E6
:102D500069F8401B2368B042F2D958690006EFD4E5
:102D6000202000212022216384F83D2084F83E1099
:102D7000226C10432064012084F83C1070BD0000D8
:102D8000FEE70000FEE7000070470000704700000B
:102D9000FEF720BA7047000040F21C10C2F200009B
:102DA000FFF740B8FEE700002DE9F04385B040F2A0
:102DB000C009C2F20009044699F8010040F2C805B2
:102DC0002043C2F2000541F204068DF806000A27EE
:102DD0000DF1060228464E210123CEF2000600978F
:102DE000FEF7D8F899F801000DF10702204340F0F2
:102DF00004008DF8070028464E2101230097FEF7B6
:102E0000C9F840F21808C2F20008D8F800004DF6E0
:102E10008365C4F21B35A0FB0501880C00EB800123
:102E2000306889003268121A0292029A8A4211D2DC
:102E30003268121A0292029A8A420BD23268121A2D
:102E40000292029A8A4205D23268121A0292029AB9
:102E50008A42E7D399F8010004F0FB0108438DF89A
:102E60000F0040F2C8000A27C2F200000DF10F0265
:102E70004E2101230097FEF78DF8D8F80000A0FB43
:102E80000501880C00EB8001306889003268121A55
:102E90000492049A8A4211D23268121A0492049A55
:102EA0008A420BD23268121A0492049A8A4205D2DC
:102EB0003268121A0492049A8A42E7D305B0BDE838
:102EC000F083000094B0FEF793F90AAC201D242192
:102ED000FDF732FA02200A9001200E901020002502
:102EE0000F90204603951195FEF7AAFB20B1EFF352
:102EF000108072B6FEE700BF0F20CDE9050505A8DA
:102F00000021CDE907550995FEF7CCFA20B1EFF382
:102F1000108072B6FEE700BF0224002502A80294CA
:102F20000495FEF743FA28B1EFF3108072B600BFA4
:102F3000FEE700BF41F21800C4F20200016840F64B
:102F4000004941F0100101600168C4F2010901F07B
:102F500010010A910A990168A9F5806841F02001E1
:102F600001600168002201F020010A910A990168BC
:102F7000F62741F004010160016801F004010A91A3
:102F80000A99016841F0080101600068F62100F02B
:102F900008000A900A984046FDF73EFF484647F66B
:102FA0000441002247F6044BFDF736FF09F5806621
:102FB00030464FF460710022FDF72EFF0A970AAFEA
:102FC0004FF0010A40463946CDE90BA50D94C8469D
:102FD000FDF71AFE48463946CDE90ABACDE90C5448
:102FE000FDF712FE4FF46070CDE90A0A304639460B
:102FF000CDE90C54FDF708FE40F28007C2F200074D
:1030000009F5C051384640F8101F042101734FF4F0
:1030100060210575C161C0E90155C0F810A0FDF738
:1030200083FB28B1EFF3108072B600BFFEE700BF4C
:10303000092007F11009CDE90A0A00240AA9484627
:103040000C94FDF7B1FA28B1EFF3108072B600BF0F
:10305000FEE700BF40F2C800A8F53841C2F2000008
:1030600048F2A0624FF48043C0F2010280E81600EB
:10307000C0E90343C0E90544C0E90744FDF7D8FEB1
:1030800020B1EFF3108072B6FEE700BF40F21C10D3
:103090000021C2F200004FF080420F2342F20F7570
:1030A0000891CDE90611CDE90211CDE90F11CDE965
:1030B0000D11C0E90023C0E9021501618161FEF72D
:1030C0001DFD28B1EFF3108072B600BFFEE700BF10
:1030D0004FF48050059040F21C10C2F2000005A988
:1030E000FEF7CEFD20B1EFF3108072B6FEE700BF11
:1030F00040F21C10C2F20000FFF7BAF820B1EFF363
:10310000108072B6FEE700BF40F21C10C2F2000051
:1031100002A9FEF7AFFC28B1EFF3108072B600BF32
:10312000FEE700BF60200A900020CDE90B000E9062
:1031300040F21C10C2F200000AA90022FEF760FF54
:1031400020B1EFF3108072B6FEE700BF40F21C150D
:10315000C2F200052846FEF71DFF28460021FFF7B2
:103160002DF90220FFF748FA40F280070AACC2F2BC
:10317000000701964BE000BF404604210022FDF706
:103180004BFE40464FF480610022FDF745FE40466D
:103190004FF400610022FDF73FFE40464FF480519E
:1031A0000022FDF739FE40464FF400510022FDF7A2
:1031B00033FE40464FF480410022FDF72DFE01987A
:1031C00080210022FDF728FEFFF770F90020002182
:1031D000FFF7A4FB2046FFF789FB0FF2144B0020FA
:1031E0000121FFF79BFB5846FFF780FB40F2800769
:1031F000C2F200070AAC0A20FDF7F2FC38460FF2D3
:10320000FC315246FDF714F80A20FDF7E9FC484668
:10321000FDF7A0FC48464FF47A71FDF767FB48467E
:10322000FDF77EFA824600F01EFC46F266634FF020
:103230006632C4F2100300F08FFA44F20003002259
:10324000C4F26F0300F0E0F900F0E0FBB4210AFBE8
:1032500001F540F20111C0F21001A5FB0112064672
:10326000A81A02EB5000C20A2046D1A1FCF7E0FFE9
:1032700040F21C10C2F20000006840F6FE718D4260
:1032800046637FF679AF41F21F00CFF6FE704DF630
:10329000E2712844C0F20101884233D24046042141
:1032A0000122FDF7B9FD40464FF480610022FDF791
:1032B000B3FD40464FF400610022FDF7ADFD4046EE
:1032C0004FF480510022FDF7A7FD40464FF4005116
:1032D0000022FDF7A1FD40464FF480410022FDF79A
:1032E0009BFD019880210022FDF796FDFFF7DEF897
:1032F00000200021FFF712FB2046FFF7F7FA0FF23C
:10330000E82B6CE743F23D00CFF6FC70284488427E
:1033100034D2404604210022FDF77EFD40464FF4A2
:1033200080610122FDF778FD40464FF400610022E4
:10333000FDF772FD40464FF480510022FDF76CFD11
:1033400040464FF400510022FDF766FD40464FF421
:1033500080410022FDF760FD019880210022FDF7E9
:103360005BFDFFF7A3F800200021FFF7D7FA204606
:10337000FFF7BCFA0FF2682B31E700BF45F25B00A4
:10338000CFF6FA702844884234D240460421002205
:10339000FDF742FD40464FF480610022FDF73CFD01
:1033A00040464FF400610122FDF736FD40464FF4E0
:1033B00080510022FDF730FD40464FF400510022BD
:1033C000FDF72AFD40464FF480410022FDF724FD21
:1033D000019880210022FDF71FFDFFF767F800200C
:1033E0000021FFF79BFA2046FFF780FA0FF2E81B57
:1033F000F5E600BF47F27900CFF6F870284488421E
:1034000034D2404604210022FDF706FD40464FF429
:1034100080610022FDF700FD40464FF4006100226C
:10342000FDF7FAFC40464FF480510122FDF7F4FC11
:1034300040464FF400510022FDF7EEFC40464FF4A9
:1034400080410022FDF7E8FC019880210022FDF771
:10345000E3FCFFF72BF800200021FFF75FFA20467E
:10346000FFF744FA0FF2681BB9E600BF49F2970074
:10347000CFF6F6704CF6E2712844C0F201018842A2
:1034800034D8404604210022FDF7C6FC40464FF4E4
:1034900080610022FDF7C0FC40464FF4006100222D
:1034A000FDF7BAFC40464FF480510022FDF7B4FC12
:1034B00040464FF400510122FDF7AEFC40464FF468
:1034C00080410022FDF7A8FC019880210022FDF731
:1034D000A3FCFEF7EBFF00200021FFF71FFA2046B8
:1034E000FFF704FA0FF2E00B79E600BF43F64C70E9
:1034F000C0F20B008542FFF47EAEFEF7D7FF00203E
:103500000021FFF70BFA2046FFF7F0F90198802120
:103510000122FDF781FC404604210122FDF77CFCDD
:1035200040464FF480610122FDF776FC40464FF49F
:1035300000610122FDF770FC40464FF480510122EA
:10354000FDF76AFC40464FF400510122FDF764FC90
:1035500040464FF480410122FDF75EFC6420FDF7F8
:103560003FFB404604210022FDF756FC40464FF445
:1035700080610022FDF750FC40464FF400610022BC
:10358000FDF74AFC40464FF480510022FDF744FC11
:1035900040464FF400510022FDF73EFC40464FF4F8
:1035A00080410022FDF738FC0FF20C0B17E600BF3C
:1035B0004143493A256400004F5645524C4F41441F
:1035C00044444444444400004153414D41203500AB
:1035D0004153414D412034004153414D412033007E
:1035E0004153414D412032004153414D4120310072
:1035F0004241534C414E474943000000504F542034
:103600003D2025640000000010B591EA030F48BF7B
:1036100083F0004300F19682841A71EB030C05D20B
:10362000121943EB0C03001B61EB0C014FEA115420
:10363000A4EB135CDFF81CE11EEA430F18BF9EEAFF
:10364000445F00F0748021EA045123EA0E0343F43E
:103650008013DCF1200E32D322FA0CFE10EB0E00A8
:1036600023FA0CFE41EB0E01CCF1200E03FA0EFE04
:1036700010EB0E00CCF1200E51F10001B1F5801FCE
:1036800032D201EB045112FA0EF2BDE8104058BFDD
:103690007047401C38BF5FEA420218BF70470028DD
:1036A00014BF20F0010041F100014FEA410313F57E
:1036B000001F38BF7047A1F1C04100F035BA012AA0
:1036C00043EB0302ACF1200CDCF11F0E32BF4FF0D4
:1036D000000E23FA0CF310EB030041EB0451B4EBA2
:1036E000115FD0D0A1EB045101F58011490801EB25
:1036F00004515FEA30000ED350F1000038BF12FAD7
:103700000EFE08D1BDE81040C9E7401C38BF5FEA93
:103710004202CAD1C3E7BDE810404FEA410313F5A6
:10372000001F38BF7047A1F1C04100F0FDB99EEA0B
:10373000445F08D011EA5E0FBDE8104004BF01F0FD
:10374000004100207047BDE8104070B500F09EF9C0
:1037500064FBBE3E0000E0FF2DE9C04130B4DFF85D
:10376000A4C23CEA111418BF3CEA131400F0ED8027
:103770001CEA111481EA030544EAD57418BF1CEA57
:10378000131500F0C880A4EB050404F17F7404F560
:1037900000344FF0004545EAC12145EAC32341EA20
:1037A000505143EA52534FEAC0204FEAC222994295
:1037B00008BF904200F09D804FEA13650FF2441657
:1037C000765D4FEA134506FB05F7C7F1807706FBE8
:1037D00007F74FEAD737A7FB03687642A7FB06CE69
:1037E000C8F5803838BFA8F1010807FB08E6A6FB3A
:1037F000028C4FF0000EE6FB03CEDCF1000CCEF1A4
:10380000004E38BFAEF1010EA6FB0C584FF000077A
:10381000E6FB0E87A1FB08C6A0FB07CE16EB0E0643
:103820004FF0000545F10005E1FB076515F1E04E9D
:103830007EBFA4F580345FEA46066D4116F180072D
:1038400045F100054FEA172747EA05674FEA1525B6
:103850004FEA0666A6F1DE46B6F1805F20D938460B
:1038600005EBC47124F0010C01EB0C11BCF1FE6FEF
:1038700002D8F0BCBDE8008124425CBF01F5801E87
:103880009EEAC47F02D4F0BCBDE80081244200F16E
:103890003980A1F1C041F0BCBDE8004100F044B95D
:1038A0004FEAD02040EA41504FEAD1214FEAD222DC
:1038B00042EA43524FEAD323A7FB028607FB036683
:1038C00005FB02661EEA0E0F58BFA6EB0056B6EBCC
:1038D00000564FEA520E4EEAC37E18EB0E0E56EB20
:1038E000530EBCD518EB02085E417F1C55F1000554
:1038F000B5E74FF480154FF000074FF000064FF08A
:103900000008ACE701F1C04101F000414FF00000B8
:10391000F0BCBDE800810CEA131511EA0C1F00D0C1
:103920000CE013EA0C1F00F026804FF0000081EA43
:10393000030101F00041F0BCBDE80081F0BCBDE82E
:10394000004181EA030100F0EFB8F0BCBDE800419E
:1039500070B500F09BF800BF097EFC3E00F007B890
:103960004FF0000081EA030101F00041704781EA55
:10397000030100F0D9B8F0BCBDE8004122494FF086
:1039800000007047FFFDFBF9F7F5F4F2F0EEEDEB08
:10399000E9E8E6E4E3E1E0DEDDDBDAD8D7D5D4D34D
:1039A000D1D0CFCDCCCBCAC8C7C6C5C4C2C1C0BF99
:1039B000BEBDBCBBBAB9B8B7B6B5B4B3B2B1B0AF9F
:1039C000AEADACABAAA9A8A8A7A6A5A4A3A3A2A183
:1039D000A09F9F9E9D9C9C9B9A999998979796953E
:1039E00095949393929191908F8F8E8E8D8C8C8BDA
:1039F0008B8A898988888787868585848483838262
:103A0000828181800000FF070000F87F4FEA115398
:103A1000A3F58063D3F11E03A8BFD3F1200C08DB0C
:103A20004FF0004242EAC12252EA505232FA03F009
:103A3000704709420BD4102BC4BF0020704703F518
:103A4000787CBCF1FF3F05D04FF0FF3070474FF05E
:103A50000000704770B500F019F800BF499224804B
:103A600000207047F0E7B0FA80F310FA03F10AD0B3
:103A7000C3F11D0303F580634FEA03524FEA41503F
:103A800002EBD12170474FF0000070470EF1020E9B
:103A90002EF0030E5EF8046B364205D4012A43EB88
:103AA000030515F5001F12D8012841EB010C1CF588
:103AB000001F0CD80ED14FEAD17C0CEB4C0C0CF152
:103AC000020C15F5001F08BF4CEBD37C04E04FF04F
:103AD000080C01E04FEAD37C0CEB4C0526FA05F606
:103AE00006F00706B6F1040C06D20EEB860CBDE814
:103AF00070404CF0010C6047DFE80CF0090B02024B
:103B00004FF00041A1F500214FF0000070BD1946B3
:103B10001046012851EB010418BFD4F5001484BFEE
:103B2000002001F0004170BD0808A0F500114FEA27
:103B30003101704710B591EA030F48BF83F000438D
:103B40003FF56AAD841A71EB030C07D28CF0004C80
:103B5000121943EB0C03001B61EB0C014FEA1154EB
:103B6000A4EB135CDFF8A4E11EEA430F18BF9EEA42
:103B7000445F00F0B48021EA045123EA6E0352420C
:103B8000C3EB6E0338BF5B1EDCF1200E25D322FA97
:103B90000CFE10EB0E0043FA0CFE41EB0E01CCF1D3
:103BA000200E03FA0EFE10EB0E00CCF1200E51F1A8
:103BB000000129D401EB045112FA0EF2BDE81040C5
:103BC00058BF7047401C1CBFB2F1004F704700281F
:103BD0000CBF491C20F00100704712EB020E43EBB2
:103BE000030218BF4FF0010E4EEA4202ACF1200C66
:103BF000DCF11E0E56D943FA0CFE10EB0E00CCF190
:103C00001E0E51F1FF31D5D50EF1010E12FA0EFE46
:103C1000404141EB010101EB445C5FEA5C5C10D97F
:103C200001EB045110EBDE7038BFBEF1004FBDE870
:103C3000104018BF704700280CBF491C20F001003D
:103C4000704734D24FEAD42C24F4006411F50011EB
:103C50001BD0B1FA81F20B3AA41AA41ED2F12003B0
:103C6000914030FA03F31943904001EBCC7101EB22
:103C70000451002CBDE81040A8BF704701F1C041BD
:103C800001F000414FF000007047B0FA80F310FAE5
:103C900003F102D1BDE810407047E41A173C480513
:103CA000C90AE2E701EB0451BDE810407047491032
:103CB0004FEA300001EB0451BDE8104002E04FF044
:103CC000000170474A0008BF0042F8D0B2F5001F5B
:103CD00028BF704701F000414FF0000070479EEA96
:103CE000445F07D011EA5E0FBDE8104004BF002119
:103CF00000207047BDE8104070B5FFF7C7FE00BF59
:103D000040DFF63E104683F0004170470000E0FFC0
:103D1000000000000000000001020304060708097B
:103D2000000000000102030402030405060708095D
:103D30000A0B0C0D0E0F10100102030405060708F4
:103D4000090A0B0C0D0E0F10683D00080000002042
:103D50002000000084010008883D000820000020A9
:103D600048070000A401000800191B060C1B1300E3
:103D700018180609080906000100000010000000DC
:083D80000024F4000000000023
:0400000508000121CD
:00000001FF
